{
  "contractName": "BatcherFactory",
  "abi": [
    {
      "anonymous": false,
      "inputs": [
        {
          "indexed": true,
          "internalType": "address",
          "name": "owner",
          "type": "address"
        },
        {
          "indexed": false,
          "internalType": "address",
          "name": "batcher",
          "type": "address"
        }
      ],
      "name": "Created",
      "type": "event"
    },
    {
      "inputs": [],
      "name": "build",
      "outputs": [
        {
          "internalType": "address payable",
          "name": "batcher",
          "type": "address"
        }
      ],
      "stateMutability": "nonpayable",
      "type": "function"
    },
    {
      "inputs": [
        {
          "internalType": "address",
          "name": "_owner",
          "type": "address"
        }
      ],
      "name": "build",
      "outputs": [
        {
          "internalType": "address payable",
          "name": "batcher",
          "type": "address"
        }
      ],
      "stateMutability": "nonpayable",
      "type": "function"
    }
  ],
  "bytecode": "0x608060405234801561001057600080fd5b5061145b806100206000396000f3fe608060405234801561001057600080fd5b50600436106100365760003560e01c80638e1a55fc1461003b578063f3701da214610059575b600080fd5b610043610089565b6040516100509190610232565b60405180910390f35b610073600480360381019061006e91906101a6565b610099565b6040516100809190610232565b60405180910390f35b600061009433610099565b905090565b60006040516100a790610184565b604051809103906000f0801580156100c3573d6000803e3d6000fd5b5090508073ffffffffffffffffffffffffffffffffffffffff1663f2fde38b836040518263ffffffff1660e01b81526004016100ff91906101fc565b600060405180830381600087803b15801561011957600080fd5b505af115801561012d573d6000803e3d6000fd5b505050508173ffffffffffffffffffffffffffffffffffffffff167f587ece4cd19692c5be1a4184503d607d45542d2aca0698c0068f52e09ccb541c826040516101779190610217565b60405180910390a2919050565b611147806102df83390190565b6000813590506101a0816102c7565b92915050565b6000602082840312156101b857600080fd5b60006101c684828501610191565b91505092915050565b6101d881610291565b82525050565b6101e78161025f565b82525050565b6101f68161024d565b82525050565b600060208201905061021160008301846101ed565b92915050565b600060208201905061022c60008301846101cf565b92915050565b600060208201905061024760008301846101de565b92915050565b600061025882610271565b9050919050565b600061026a82610271565b9050919050565b600073ffffffffffffffffffffffffffffffffffffffff82169050919050565b600061029c826102a3565b9050919050565b60006102ae826102b5565b9050919050565b60006102c082610271565b9050919050565b6102d08161024d565b81146102db57600080fd5b5056fe608060405234801561001057600080fd5b5060006100216100c460201b60201c565b9050806000806101000a81548173ffffffffffffffffffffffffffffffffffffffff021916908373ffffffffffffffffffffffffffffffffffffffff1602179055508073ffffffffffffffffffffffffffffffffffffffff16600073ffffffffffffffffffffffffffffffffffffffff167f8be0079c531659141344cd1fd0a4f28419497f9722a3daafe3b4186f6b6457e060405160405180910390a3506100cc565b600033905090565b61106c806100db6000396000f3fe6080604052600436106100595760003560e01c8063715018a6146100655780638da5cb5b1461007c5780639c328fb3146100a7578063e4c73dec146100d2578063f2fde38b146100ee578063f8a8fd6d1461011757610060565b3661006057005b600080fd5b34801561007157600080fd5b5061007a61012e565b005b34801561008857600080fd5b50610091610281565b60405161009e9190610d03565b60405180910390f35b3480156100b357600080fd5b506100bc6102aa565b6040516100c99190610d5e565b60405180910390f35b6100ec60048036038101906100e79190610b7a565b6102b0565b005b3480156100fa57600080fd5b5061011560048036038101906101109190610b51565b6106f0565b005b34801561012357600080fd5b5061012c6108b2565b005b6101366108cd565b73ffffffffffffffffffffffffffffffffffffffff1660008054906101000a900473ffffffffffffffffffffffffffffffffffffffff1673ffffffffffffffffffffffffffffffffffffffff16146101c3576040517f08c379a00000000000000000000000000000000000000000000000000000000081526004016101ba90610d3e565b60405180910390fd5b600073ffffffffffffffffffffffffffffffffffffffff1660008054906101000a900473ffffffffffffffffffffffffffffffffffffffff1673ffffffffffffffffffffffffffffffffffffffff167f8be0079c531659141344cd1fd0a4f28419497f9722a3daafe3b4186f6b6457e060405160405180910390a360008060006101000a81548173ffffffffffffffffffffffffffffffffffffffff021916908373ffffffffffffffffffffffffffffffffffffffff160217905550565b60008060009054906101000a900473ffffffffffffffffffffffffffffffffffffffff16905090565b60015481565b6102b86108cd565b73ffffffffffffffffffffffffffffffffffffffff1660008054906101000a900473ffffffffffffffffffffffffffffffffffffffff1673ffffffffffffffffffffffffffffffffffffffff1614610345576040517f08c379a000000000000000000000000000000000000000000000000000000000815260040161033c90610d3e565b60405180910390fd5b60008167ffffffffffffffff811115610387577f4e487b7100000000000000000000000000000000000000000000000000000000600052604160045260246000fd5b6040519080825280602002602001820160405280156103b55781602001602082028036833780820191505090505b50905060005b83518110156106ea5760008482815181106103ff577f4e487b7100000000000000000000000000000000000000000000000000000000600052603260045260246000fd5b60200260200101516040015190506000858381518110610448577f4e487b7100000000000000000000000000000000000000000000000000000000600052603260045260246000fd5b602002602001015160800151905060005b8581101561051257600082828151811061049c577f4e487b7100000000000000000000000000000000000000000000000000000000600052603260045260246000fd5b6020026020010151905060038111156104fe5760008683815181106104ea577f4e487b7100000000000000000000000000000000000000000000000000000000600052603260045260246000fd5b602002602001015190508082602001860152505b50808061050a90610f61565b915050610459565b5060008087858151811061054f577f4e487b7100000000000000000000000000000000000000000000000000000000600052603260045260246000fd5b60200260200101516000015173ffffffffffffffffffffffffffffffffffffffff168886815181106105aa577f4e487b7100000000000000000000000000000000000000000000000000000000600052603260045260246000fd5b602002602001015160200151856040516105c49190610cec565b60006040518083038185875af1925050503d8060008114610601576040519150601f19603f3d011682016040523d82523d6000602084013e610606565b606091505b50915091508161061a573d6000803e3d6000fd5b6000888681518110610655577f4e487b7100000000000000000000000000000000000000000000000000000000600052603260045260246000fd5b602002602001015160600151905060008111156106d257818060200190518101906106809190610bce565b8760018361068e9190610eaf565b815181106106c5577f4e487b7100000000000000000000000000000000000000000000000000000000600052603260045260246000fd5b6020026020010181815250505b505050505080806106e290610f61565b9150506103bb565b50505050565b6106f86108cd565b73ffffffffffffffffffffffffffffffffffffffff1660008054906101000a900473ffffffffffffffffffffffffffffffffffffffff1673ffffffffffffffffffffffffffffffffffffffff1614610785576040517f08c379a000000000000000000000000000000000000000000000000000000000815260040161077c90610d3e565b60405180910390fd5b600073ffffffffffffffffffffffffffffffffffffffff168173ffffffffffffffffffffffffffffffffffffffff1614156107f5576040517f08c379a00000000000000000000000000000000000000000000000000000000081526004016107ec90610d1e565b60405180910390fd5b8073ffffffffffffffffffffffffffffffffffffffff1660008054906101000a900473ffffffffffffffffffffffffffffffffffffffff1673ffffffffffffffffffffffffffffffffffffffff167f8be0079c531659141344cd1fd0a4f28419497f9722a3daafe3b4186f6b6457e060405160405180910390a3806000806101000a81548173ffffffffffffffffffffffffffffffffffffffff021916908373ffffffffffffffffffffffffffffffffffffffff16021790555050565b60018060008282546108c49190610e59565b92505081905550565b600033905090565b60006108e86108e384610daa565b610d79565b9050808382526020820190508260005b85811015610928578135850161090e8882610a6f565b8452602084019350602083019250506001810190506108f8565b5050509392505050565b600061094561094084610dd6565b610d79565b9050808382526020820190508285602086028201111561096457600080fd5b60005b85811015610994578161097a8882610b27565b845260208401935060208301925050600181019050610967565b5050509392505050565b60006109b16109ac84610e02565b610d79565b9050828152602081018484840111156109c957600080fd5b6109d4848285610f1f565b509392505050565b6000813590506109eb81611008565b92915050565b600082601f830112610a0257600080fd5b8135610a128482602086016108d5565b91505092915050565b600082601f830112610a2c57600080fd5b8135610a3c848260208601610932565b91505092915050565b600082601f830112610a5657600080fd5b8135610a6684826020860161099e565b91505092915050565b600060a08284031215610a8157600080fd5b610a8b60a0610d79565b90506000610a9b848285016109dc565b6000830152506020610aaf84828501610b27565b602083015250604082013567ffffffffffffffff811115610acf57600080fd5b610adb84828501610a45565b6040830152506060610aef84828501610b27565b606083015250608082013567ffffffffffffffff811115610b0f57600080fd5b610b1b84828501610a1b565b60808301525092915050565b600081359050610b368161101f565b92915050565b600081519050610b4b8161101f565b92915050565b600060208284031215610b6357600080fd5b6000610b71848285016109dc565b91505092915050565b60008060408385031215610b8d57600080fd5b600083013567ffffffffffffffff811115610ba757600080fd5b610bb3858286016109f1565b9250506020610bc485828601610b27565b9150509250929050565b600060208284031215610be057600080fd5b6000610bee84828501610b3c565b91505092915050565b610c0081610ee3565b82525050565b6000610c1182610e32565b610c1b8185610e3d565b9350610c2b818560208601610f2e565b80840191505092915050565b6000610c44602683610e48565b91507f4f776e61626c653a206e6577206f776e657220697320746865207a65726f206160008301527f64647265737300000000000000000000000000000000000000000000000000006020830152604082019050919050565b6000610caa602083610e48565b91507f4f776e61626c653a2063616c6c6572206973206e6f7420746865206f776e65726000830152602082019050919050565b610ce681610f15565b82525050565b6000610cf88284610c06565b915081905092915050565b6000602082019050610d186000830184610bf7565b92915050565b60006020820190508181036000830152610d3781610c37565b9050919050565b60006020820190508181036000830152610d5781610c9d565b9050919050565b6000602082019050610d736000830184610cdd565b92915050565b6000604051905081810181811067ffffffffffffffff82111715610da057610d9f610fd9565b5b8060405250919050565b600067ffffffffffffffff821115610dc557610dc4610fd9565b5b602082029050602081019050919050565b600067ffffffffffffffff821115610df157610df0610fd9565b5b602082029050602081019050919050565b600067ffffffffffffffff821115610e1d57610e1c610fd9565b5b601f19601f8301169050602081019050919050565b600081519050919050565b600081905092915050565b600082825260208201905092915050565b6000610e6482610f15565b9150610e6f83610f15565b9250827fffffffffffffffffffffffffffffffffffffffffffffffffffffffffffffffff03821115610ea457610ea3610faa565b5b828201905092915050565b6000610eba82610f15565b9150610ec583610f15565b925082821015610ed857610ed7610faa565b5b828203905092915050565b6000610eee82610ef5565b9050919050565b600073ffffffffffffffffffffffffffffffffffffffff82169050919050565b6000819050919050565b82818337600083830152505050565b60005b83811015610f4c578082015181840152602081019050610f31565b83811115610f5b576000848401525b50505050565b6000610f6c82610f15565b91507fffffffffffffffffffffffffffffffffffffffffffffffffffffffffffffffff821415610f9f57610f9e610faa565b5b600182019050919050565b7f4e487b7100000000000000000000000000000000000000000000000000000000600052601160045260246000fd5b7f4e487b7100000000000000000000000000000000000000000000000000000000600052604160045260246000fd5b61101181610ee3565b811461101c57600080fd5b50565b61102881610f15565b811461103357600080fd5b5056fea26469706673582212205e57c2add07afa64379e4eb7c8c78a46f80bd49f5210697120ed3216be22865564736f6c63430008000033a26469706673582212207ea981acb4b7bd4f249e857d1e08793a8bf6108908c370180e32c2eddd00eee264736f6c63430008000033",
  "immutableReferences": {},
  "source": "// SPDX-License-Identifier: UNLICENSED\n\npragma solidity ^0.8.0;\n\nimport \"./Batcher.sol\";\n\ncontract BatcherFactory {\n    event Created(address indexed owner, address batcher);\n\n    function build() external returns (address payable batcher) {\n        batcher = build(msg.sender);\n    }\n\n    function build(address _owner) public returns (address payable batcher) {\n        batcher = payable(new Batcher());\n        Batcher(batcher).transferOwnership(_owner);\n        emit Created(_owner, batcher);        \n    }\n}",
  "sourcePath": "/Users/ovdbigge/argent/batcher/contracts/BatcherFactory.sol",
  "compiler": {
    "name": "solc",
    "version": "0.8.0+commit.c7dfd78e.Emscripten.clang"
  },
  "schemaVersion": "3.3.3",
  "updatedAt": "2021-01-22T12:17:10.784Z",
  "networkType": "ethereum",
  "devdoc": {
    "kind": "dev",
    "methods": {},
    "version": 1
  },
  "userdoc": {
    "kind": "user",
    "methods": {},
    "version": 1
  }
}